:020000040800F2
:10000000000002206D340008D1140008D314000849
:10001000D5140008D7140008D91400080000000007
:10002000000000000000000000000000DB140008D9
:10003000DD14000800000000DF140008E1140008CF
:10004000BD340008BD340008BD340008BD340008CC
:10005000BD340008BD340008BD340008BD340008BC
:10006000BD340008BD340008BD340008BD340008AC
:10007000BD340008BD340008BD340008BD3400089C
:10008000E9140008BD340008BD340008BD34000880
:10009000BD340008BD340008BD340008BD3400087C
:1000A000BD340008BD340008BD340008BD3400086C
:1000B000BD340008BD340008BD340008BD3400085C
:1000C000BD340008BD340008BD340008BD3400084C
:1000D000BD340008BD340008BD340008BD3400083C
:1000E000BD340008BD340008BD340008BD3400082C
:1000F000BD340008BD340008BD340008BD3400081C
:10010000BD340008BD340008BD340008BD3400080B
:10011000BD340008BD340008BD340008BD340008FB
:10012000BD340008BD340008BD340008BD340008EB
:10013000BD3400080000000000000000BD340008CD
:10014000BD340008BD340008BD340008BD340008CB
:10015000BD340008BD340008BD340008BD340008BB
:10016000BD340008BD340008BD340008BD340008AB
:10017000BD340008BD340008BD3400080000000094
:1001800000000000BD340008000000000000000076
:10019000BD3400080000000000000000BD3400086D
:1001A000000000000000000000000000BD34000856
:1001B000BD340008BD340008BD340008BD3400085B
:0401C000BD34000842
:1001D00010B5054C237833B9044B13B10448AFF381
:1001E00000800123237010BDDC010020000000000E
:1001F000F062000808B5034B1BB103490348AFF395
:10020000008008BD00000000E0010020F06200084E
:10021000034613F8012B002AFBD1181A0138704746
:1002200001F0FF01102A2BDB10F0070F08D010F8A7
:10023000013B013A8B422DD010F0070F42B3F6D1AB
:10024000F0B441EA012141EA014122F007047FF0C4
:1002500000070023F0E80256083C85EA010586EA1B
:10026000010685FA47F5A3FA87F586FA47F6A5FA57
:1002700087F68EB9EED1F0BC01F0FF0102F0070263
:1002800032B110F8013B013A83EA010313B1F8D10E
:100290000020704701387047002D06BF35460338EF
:1002A000073815F0010F07D1013015F4807F02BF28
:1002B000013015F4C03F0130F0BC0138704700BF79
:1002C00081F0004102E000BF83F0004330B54FEA07
:1002D00041044FEA430594EA050F08BF90EA020F74
:1002E0001FBF54EA000C55EA020C7FEA645C7FEA07
:1002F000655C00F0E2804FEA5454D4EB5555B8BF2A
:100300006D420CDD2C4480EA020281EA030382EA9A
:10031000000083EA010180EA020281EA0303362D2C
:1003200088BF30BD11F0004F4FEA01314FF4801CFF
:100330004CEA113102D0404261EB410113F0004F11
:100340004FEA03334CEA133302D0524263EB4303C8
:1003500094EA050F00F0A780A4F10104D5F1200E66
:100360000DDB02FA0EFC22FA05F2801841F10001C1
:1003700003FA0EF2801843FA05F359410EE0A5F195
:1003800020050EF1200E012A03FA0EFC28BF4CF0C6
:10039000020C43FA05F3C01851EBE37101F000457C
:1003A00007D54FF0000EDCF1000C7EEB00006EEB89
:1003B0000101B1F5801F1BD3B1F5001F0CD3490813
:1003C0005FEA30004FEA3C0C04F101044FEA44526A
:1003D00012F5800F80F09A80BCF1004F08BF5FEAF1
:1003E000500C50F1000041EB045141EA050130BDD1
:1003F0005FEA4C0C404141EB0101013C28BFB1F5E3
:10040000801FE9D291F0000F04BF01460020B1FA2D
:1004100081F308BF2033A3F10B03B3F120020CDA00
:100420000C3208DD02F1140CC2F10C0201FA0CF0DE
:1004300021FA02F10CE002F11402D8BFC2F1200C43
:1004400001FA02F120FA0CFCDCBF41EA0C019040F9
:10045000E41AA2BF01EB0451294330BD6FEA040442
:100460001F3C1CDA0C340EDC04F11404C4F120022D
:1004700020FA04F001FA02F340EA030021FA04F33F
:1004800045EA030130BDC4F10C04C4F1200220FA96
:1004900002F001FA04F340EA0300294630BD21FAD4
:1004A00004F0294630BD94F0000F83F4801306BF9A
:1004B00081F480110134013D4EE77FEA645C18BF8E
:1004C0007FEA655C29D094EA050F08BF90EA020F25
:1004D00005D054EA000C04BF1946104630BD91EA1D
:1004E000030F1EBF0021002030BD5FEA545C05D120
:1004F0004000494128BF41F0004130BD14F580045F
:100500003CBF01F5801130BD01F0004545F0FE41D2
:1005100041F470014FF0000030BD7FEA645C1ABF07
:10052000194610467FEA655C1CBF0B46024650EA3E
:10053000013406BF52EA033591EA030F41F400216A
:1005400030BD00BF90F0000F04BF0021704730B5F0
:100550004FF4806404F132044FF000054FF00001C5
:1005600050E700BF90F0000F04BF0021704730B586
:100570004FF4806404F1320410F0004548BF40425B
:100580004FF000013EE700BF42004FEAE2014FEAB0
:1005900031014FEA02701FBF12F07F4393F07F4F8B
:1005A00081F06051704732F07F4208BF704793F08E
:1005B0007F4F04BF41F40021704730B54FF46074A1
:1005C00001F0004521F000411CE700BF50EA0102A4
:1005D00008BF704730B54FF000050AE050EA01024D
:1005E00008BF704730B511F0004502D5404261EBBD
:1005F00041014FF4806404F132045FEA915C3FF4FE
:10060000D8AE4FF003025FEADC0C18BF03325FEA9A
:10061000DC0C18BF033202EBDC02C2F1200300FA4B
:1006200003FC20FA02F001FA03FE40EA0E0021FA70
:1006300002F11444BDE600BF70B54FF0FF0C4CF45E
:10064000E06C1CEA11541DBF1CEA135594EA0C0F10
:1006500095EA0C0F00F0DEF82C4481EA030621EA4B
:100660004C5123EA4C5350EA013518BF52EA033586
:1006700041F4801143F4801338D0A0FB02CE4FF038
:100680000005E1FB02E506F00042E0FB03E54FF068
:100690000006E1FB03569CF0000F18BF4EF0010E60
:1006A000A4F1FF04B6F5007F64F5407404D25FEA5C
:1006B0004E0E6D4146EB060642EAC62141EA55510F
:1006C0004FEAC52040EA5E504FEACE2EB4F1FD0C51
:1006D00088BFBCF5E06F1ED8BEF1004F08BF5FEACF
:1006E000500E50F1000041EB045170BD06F0004681
:1006F00046EA010140EA020081EA0301B4EB5C042E
:10070000C2BFD4EB0C0541EA045170BD41F4801125
:100710004FF0000E013C00F3AB8014F1360FDEBF4A
:10072000002001F0004170BDC4F10004203C35DA26
:100730000C341BDC04F11404C4F1200500FA05F3A9
:1007400020FA04F001FA05F240EA020001F000424A
:1007500021F0004110EBD37021FA04F642EB0601C0
:100760005EEA430E08BF20EAD37070BDC4F10C04EA
:10077000C4F1200500FA04F320FA05F001FA04F2AE
:1007800040EA020001F0004110EBD37041F100019A
:100790005EEA430E08BF20EAD37070BDC4F12005A5
:1007A00000FA05F24EEA020E20FA04F301FA05F20D
:1007B00043EA020321FA04F001F0004121FA04F2B5
:1007C00020EA020000EBD3705EEA430E08BF20EA85
:1007D000D37070BD94F0000F0FD101F000464000BF
:1007E00041EB010111F4801F08BF013CF7D041EA41
:1007F000060195F0000F18BF704703F00046520045
:1008000043EB030313F4801F08BF013DF7D043EA15
:100810000603704794EA0C0F0CEA135518BF95EACB
:100820000C0F0CD050EA410618BF52EA4306D1D152
:1008300081EA030101F000414FF0000070BD50EA71
:10084000410606BF1046194652EA430619D094EAFB
:100850000C0F02D150EA013613D195EA0C0F05D1E5
:1008600052EA03361CBF104619460AD181EA030139
:1008700001F0004141F0FE4141F470014FF00000F1
:1008800070BD41F0FE4141F4780170BD70B54FF08C
:10089000FF0C4CF4E06C1CEA11541DBF1CEA13550C
:1008A00094EA0C0F95EA0C0F00F0A7F8A4EB0504EE
:1008B00081EA030E52EA03354FEA013100F08880E5
:1008C0004FEA03334FF0805545EA131343EA1263AE
:1008D0004FEA022245EA111545EA10654FEA002663
:1008E0000EF000419D4208BF964244F1FD0404F51C
:1008F000407402D25B084FEA3202B61A65EB030578
:100900005B084FEA32024FF480104FF4002CB6EB34
:10091000020E75EB030E22BFB61A754640EA0C00B4
:100920005B084FEA3202B6EB020E75EB030E22BFF4
:10093000B61A754640EA5C005B084FEA3202B6EB35
:10094000020E75EB030E22BFB61A754640EA9C00F4
:100950005B084FEA3202B6EB020E75EB030E22BFC4
:10096000B61A754640EADC0055EA060E18D04FEA82
:10097000051545EA16754FEA06164FEAC30343EA22
:1009800052734FEAC2025FEA1C1CC0D111F4801FEF
:100990000BD141EA00014FF000004FF0004CB6E7E8
:1009A00011F4801F04BF01430020B4F1FD0C88BF87
:1009B000BCF5E06F3FF6AFAEB5EB030C04BFB6EB92
:1009C000020C5FEA500C50F1000041EB045170BD85
:1009D0000EF0004E4EEA113114EB5C04C2BFD4EBB2
:1009E0000C0541EA045170BD41F480114FF0000E36
:1009F000013C90E645EA060E8DE60CEA135594EAB2
:100A00000C0F08BF95EA0C0F3FF43BAF94EA0C0FB4
:100A10000AD150EA01347FF434AF95EA0C0F7FF429
:100A200025AF104619462CE795EA0C0F06D152EA7D
:100A300003353FF4FDAE1046194622E750EA410661
:100A400018BF52EA43067FF4C5AE50EA41047FF472
:100A50000DAF52EA43057FF4EBAE12E74FF0FF3CD7
:100A600006E000BF4FF0010C02E000BF4FF0010CA8
:100A70004DF804CD4FEA410C7FEA6C5C4FEA430C21
:100A800018BF7FEA6C5C1BD001B050EA410C0CBF70
:100A900052EA430C91EA030F02BF90EA020F0020D2
:100AA000704710F1000F91EA030F58BF994208BF39
:100AB00090422CBFD8176FEAE37040F001007047F6
:100AC0004FEA410C7FEA6C5C02D150EA013C07D14D
:100AD0004FEA430C7FEA6C5CD6D152EA033CD3D098
:100AE0005DF8040B704700BF8446104662468C4692
:100AF0001946634600E000BF01B5FFF7B7FF0028C5
:100B000048BF10F1000F01BD4DF808EDFFF7F4FFED
:100B10000CBF012000205DF808FB00BF4DF808ED78
:100B2000FFF7EAFF34BF012000205DF808FB00BF9B
:100B30004DF808EDFFF7E0FF94BF012000205DF8BD
:100B400008FB00BF4DF808EDFFF7CEFF94BF012072
:100B500000205DF808FB00BF4DF808EDFFF7C4FF6B
:100B600034BF012000205DF808FB00BF4FEA410CB4
:100B70007FEA6C5C02D150EA013C0AD14FEA430C97
:100B80007FEA6C5C02D152EA033C02D14FF00000D4
:100B900070474FF0010070474FEA410212F5001212
:100BA00015D211D56FF47873B3EB625212D94FEAB4
:100BB000C12343F0004343EA505311F0004F23FA9E
:100BC00002F018BF404270474FF00000704750EAF3
:100BD000013005D111F0004008BF6FF000407047B0
:100BE0004FF00000704700BF53B94AB9002908BF51
:100BF00000281CBF4FF0FF314FF0FF3000F074B9F8
:100C0000ADF1080C6DE904CE00F006F8DDF804E063
:100C1000DDE9022304B070472DE9F047089D044642
:100C20008E46002B4DD18A42944669D9B2FA82F29F
:100C300052B101FA02F3C2F1200120FA01F10CFADB
:100C400002FC41EA030E94404FEA1C48210CBEFB13
:100C5000F8F61FFA8CF708FB16E341EA034306FB9C
:100C600007F199420AD91CEB030306F1FF3080F02B
:100C70001F81994240F21C81023E63445B1AA4B278
:100C8000B3FBF8F008FB103344EA034400FB07F71A
:100C9000A7420AD91CEB040400F1FF3380F00A815B
:100CA000A74240F207816444023840EA0640E41B50
:100CB00000261DB1D4400023C5E900433146BDE8FC
:100CC000F0878B4209D9002D00F0EF800026C5E99E
:100CD000000130463146BDE8F087B3FA83F6002EB6
:100CE0004AD18B4202D3824200F2F980841A61EB2E
:100CF000030301209E46002DE0D0C5E9004EDDE74C
:100D000002B9FFDEB2FA82F2002A40F09280A1EB33
:100D10000C014FEA1C471FFA8CFE0126200CB1FB88
:100D2000F7F307FB131140EA01410EFB03F0884281
:100D300008D91CEB010103F1FF3802D2884200F20E
:100D4000CB804346091AA4B2B1FBF7F007FB1011A0
:100D500044EA01440EFB00FEA64508D91CEB04043E
:100D600000F1FF3102D2A64500F2BB800846A4EB99
:100D70000E0440EA03409CE7C6F12007B34022FA84
:100D800007FC4CEA030C20FA07F401FA06F31C43B3
:100D9000F9404FEA1C4900FA06F3B1FBF9F8200CC0
:100DA0001FFA8CFE09FB181140EA014108FB0EF006
:100DB000884202FA06F20BD91CEB010108F1FF3A56
:100DC00080F08880884240F28580A8F10208614462
:100DD000091AA4B2B1FBF9F009FB101144EA014170
:100DE00000FB0EFE8E4508D91CEB010100F1FF341B
:100DF0006CD28E456AD90238614440EA0840A0FBB3
:100E00000294A1EB0E01A142C846A64656D353D088
:100E10005DB1B3EB080261EB0E0101FA07F722FAAC
:100E200006F3F1401F43C5E9007100263146BDE8D5
:100E3000F087C2F12003D8400CFA02FC21FA03F338
:100E4000914001434FEA1C471FFA8CFEB3FBF7F0B9
:100E500007FB10360B0C43EA064300FB0EF69E42DE
:100E600004FA02F408D91CEB030300F1FF382FD277
:100E70009E422DD9023863449B1B89B2B3FBF7F61F
:100E800007FB163341EA034106FB0EF38B4208D9F8
:100E90001CEB010106F1FF3816D28B4214D9023E39
:100EA0006144C91A46EA004638E72E46284605E757
:100EB0000646E3E61846F8E64B45A9D2B9EB020828
:100EC00064EB0C0E0138A3E74646EAE7204694E7B8
:100ED0004046D1E7D0467BE7023B614432E73046EB
:100EE00009E76444023842E7704700BF38B5002381
:100EF000052B17DC424AD25C022A05D00133F7E702
:100F00003F498A5C042A0CD0591E3E4A82FB0102EA
:100F1000A2EBE17202EB420250000A1AF0D506324F
:100F2000EEE70133364AD45C2406591C354A82FB6D
:100F30000102A2EBE17202EB420250000A1A37D41E
:100F40002F498A5C04EB0244991C2E4A82FB010261
:100F5000A2EBE17202EB420250000A1A2AD428499D
:100F60008A5C04EB02240333264A82FB0312A2EBC1
:100F7000E37202EB420251005A1A1DD4204B9B5CD3
:100F80001C44214B1C60214B9C4224D016D8204B82
:100F90009C421DD003F1BC7303F5495325339C4299
:100FA0001AD11C4B1B78B3B11B4B01221A7012E0F3
:100FB0000632C5E70632D2E70632DFE7174B9C421E
:100FC0000AD1144B1B7833B1134B00221A7002E084
:100FD000104B01221A7038BD114D4FF48072002160
:100FE000284602F091FA22460E49284602F0FEFEFB
:100FF0006423322229460C4802F083F8EBE700BF55
:10100000F8010020ABAAAA2A0003002011EEFFC0BD
:1010100055AA55AAFE01002004030020CDABBADC7E
:101020000002002008630008BC03002072B6FEE73F
:1010300000B595B03422002107A802F065FA00231C
:101040000293039304930593069300931F4A116C34
:1010500041F080511164126C02F080520092009AAB
:1010600001931B490A6822F4404242F480420A601C
:101070000A6802F440420192019A02220792012179
:101080000A9110210B910D920E930F914FF4A873BA
:101090001093042311931292139207A801F028F9D8
:1010A00080B90F23029302210391002304934FF48C
:1010B00080520592069302A800F084FF20B915B073
:1010C0005DF804FBFFF7B2FFFFF7B0FF0038024006
:1010D0000070004070B584B001F0C4FEFFF7A8FFB7
:1010E00000F0A6F802F0A8F900F02AF900F080F963
:1010F00006224449444802F017F9444CA6212046F0
:1011000002F038F900230393204602F046F928BB89
:101110003F4D2C463F4E0FCE0FC40FCE0FC40FCE07
:101120000FC4336824F8023B1B0C23706423322263
:101130002946354801F0E5FF03A9344802F076F965
:1011400098B9334C039A3449204602F04FFE642389
:10115000142221462C4801F0D4FF1CE0642307220E
:101160002E49294801F0CDFFE6E7642307222B49E9
:10117000254801F0C6FF0EE0254C294B93E80300FB
:1011800084E803006423072221461F4801F0B9FFC9
:10119000642001F093FE234B1B78002BF8D0224BE8
:1011A0001B78002BF4D02021204801F0B5FB01A9C9
:1011B000164802F019F90028DED1154C4FF4807260
:1011C0000021204602F0A0F9BDF904309DF9052068
:1011D00022706370BDF906309DF90720A270E3709C
:1011E000BDF908309DF9092022716371AA23A3710A
:1011F0005523E371642308222146034801F081FF4F
:10120000C6E700BFF8010020BC030020080300204F
:101210000002002038630008746300086C63000853
:1012200088630008FE010020040300200000024043
:10123000F0B58BB0002405940694079408940994A3
:101240000094394B1A6B42F004021A631A6B02F0D5
:1012500004020092009A01941A6B42F080021A6311
:101260001A6B02F080020192019A02941A6B42F00A
:1012700001021A631A6B02F001020292029A0394AD
:101280001A6B42F002021A631A6B02F00202039216
:10129000039A04941A6B42F008021A631B6B03F062
:1012A00008030493049B214E22462021304601F07E
:1012B0002DFB4FF4005305931D4B069307941D4FD0
:1012C00005A9384601F036FA41F6FF730593032568
:1012D0000695079405A9384601F02CFA49F6D37310
:1012E00005930695079405A9304601F023FA2023BB
:1012F0000593012306930794089405A9304601F04D
:1013000019FA4FF2377305930695079405A90A4811
:1013100001F010FA042305930695079405A90748E0
:1013200001F008FA0BB0F0BD0038024000000240A6
:10133000000021100008024000040240000C02409E
:1013400008B50B480B4B03600B4B436000238360D5
:101350003A22C2604FF48042026143618361C361FB
:10136000036200F023FB00B908BDFFF75FFEFBE757
:101370000803002000540040801A060030B589B0F0
:101380000023039304930593069307930268154B78
:101390009A4201D009B030BD00250195124C236B53
:1013A00043F002032363236B03F002030193019BC9
:1013B000C02303931223049301230593032306936D
:1013C0000423079303A9094801F0B4F90295236C9B
:1013D00043F400132364236C03F400130293029B71
:1013E000D8E700BF0054004000380240000402402B
:1013F00008B50A480A4B03604FF4E1334360002309
:101400008360C36003610C2242618361C36101F0A8
:1014100049FE00B908BDFFF709FEFBE7BC03002049
:101420000044004030B589B0002303930493059332
:10143000069307930268224B9A4201D009B030BD4F
:1014400004460025019503F5FA331A6C42F4003284
:101450001A641A6C02F400320192019A02951A6B16
:1014600042F001021A631B6B03F001030293029B1B
:101470000C23039302230493032306930723079368
:1014800003A9104801F056F90F48104B03604FF0C4
:10149000006343608560C5604FF48063036145610C
:1014A00085614FF48073C3610562456201F0BEFA45
:1014B00018B9054BA3639C63C0E7FFF7B7FDF8E7D6
:1014C00000440040000002405C03002088600240AD
:1014D000FEE7FEE7FEE7FEE7FEE77047704770476E
:1014E00008B501F0D9FC08BD08B5024801F03AFB87
:1014F00008BD00BF5C03002000B583B0002100914F
:101500000C4B5A6C42F480425A645A6C02F480428A
:101510000092009A01911A6C42F080521A641B6C7E
:1015200003F080530193019B072001F009FC03B0F5
:101530005DF804FB0038024003685A6912F4806FBA
:1015400001D1002070476FF480625A610023036369
:10155000202280F83D2080F83E30026C42F00402E8
:10156000026480F83C30012070472DE9F0410746C5
:101570000D4690461E4624E001F09AFC069BC01AD8
:10158000B04200D8EEB900233B63202287F83D200B
:1015900087F83E303A6C42F020023A6487F83C30DB
:1015A00001201EE03B689C6925EA040C1FFA8CFCB4
:1015B000BCFA8CFC4FEA5C1CE04511D1B6F1FF3F50
:1015C000DAD1C5F30743012BECD13B685B6925EA0F
:1015D000030C1FFA8CFCBCFA8CFC4FEA5C1CEBE79A
:1015E0000020BDE8F0812DE9F04105460E46174682
:1015F00098463DE01A6842F400721A602B686FF456
:1016000080625A6100232B63202285F83D2085F8F3
:101610003E302A6C42F004022A6485F83C300120F6
:1016200034E001F045FCA0EB0800B84200D8FFB957
:1016300000232B63202285F83D2085F83E302A6C5C
:1016400042F020022A6485F83C3001201EE02B681D
:101650009C6926EA0404A4B2003C18BF0124A4B18A
:101660002B685A6912F4806FC4D1B7F1FF3FD8D10B
:10167000C6F30743012BEAD12B685C6926EA040410
:10168000A4B2003C18BF0124E9E70020BDE8F081C6
:10169000F0B583B004460D4616461F46C36A082BB4
:1016A0000DD0012B0BD013F5803F08D0036B122B0C
:1016B0000AD10268136843F48073136004E022685F
:1016C000136843F4807313600097334600224FF091
:1016D00001112046FFF749FF80B92369B3F5804F18
:1016E00016D1236805F0FE051D613B4632461349BD
:1016F0002046FFF778FFF8B903B0F0BD23681B68F8
:1017000013F4807F02D04FF4007323640320F3E7C7
:10171000EB11226803F0060343F0F00313613B462C
:10172000324607492046FFF75EFF18B92368EDB23D
:101730001D61DAE70120DFE70120DDE7020001009B
:101740000800010070B504460D46164623685B6923
:1017500013F0800F1CD12046FFF7EEFED0B9B5F193
:10176000FF3FF3D001F0A4FB801BA84201D8002D5D
:10177000ECD100232363202284F83D2084F83E30FE
:10178000226C42F02002226484F83C30012000E008
:10179000002070BD0120FCE72DE9F04784B004462D
:1017A0000D46164699460C9FDDF834800268136892
:1017B00043F4806313600368196841F48071196011
:1017C000CDF800803B4600224FF00111FFF7CDFE1F
:1017D00070B95FFA85FA236805F0FE051D6143467E
:1017E0003A4641492046FFF7FEFE68B1012008E075
:1017F00023681B6813F4807F02D04FF400732364C6
:10180000032004B0BDE8F0870023039323685A69DE
:1018100003929B690393039B424639462046FFF798
:1018200091FF80B9B9F1010F18D12368F6B21E619A
:10183000424639462046FFF785FF68B3236C042BE8
:1018400024D00120DDE7236C042B01D00120D8E750
:101850002268136843F400731360F7E72368320AC1
:101860001A61424639462046FFF76CFF18B92368D3
:10187000F6B21E61DCE7236C042B01D00120C0E727
:101880002268136843F400731360F7E72268136853
:1018900043F400731360D4E72268136843F4807341
:1018A0001360CDF800803B4600224FF00111204626
:1018B000FFF75BFE68B922684AF0010313614346F3
:1018C0003A4609492046FFF78EFE002899D00120AC
:1018D00097E723681B6813F4807F02D04FF40073EE
:1018E000236403208DE700BF0200010070B50446A9
:1018F0000D46164623685B6913F0040F1CD1204681
:10190000FFF71AFED0B9B5F1FF3FF3D001F0D0FADE
:10191000801BA84201D8002DECD100232363202294
:1019200084F83D2084F83E30226C42F0200222648C
:1019300084F83C30012000E0002070BD0120FCE76D
:1019400070B505460C4616462B68596911F0400FD4
:1019500029D1596911F0100F15D101F0A9FA801B96
:10196000A04201D8002CEFD100232B63202285F860
:101970003D2085F83E302A6C42F020022A6485F82A
:101980003C30012070BD6FF010025A6100232B63C0
:10199000202285F83D2085F83E302A6C2A6485F89F
:1019A0003C300120EEE70020ECE70000002800F0CA
:1019B000CC8070B5044690F83D30002B77D02423BE
:1019C00084F83D302268136823F001031360226815
:1019D000136843F4004313602268136823F4004340
:1019E000136000F0A5FB62685A4B9A4264D85A4BC8
:1019F00098428CBF00230123002B40F0A880574958
:101A0000A1FB00318B0C25686A6822F03F0242EA94
:101A100091426A6021680A6A22F03F0266684D4D71
:101A2000AE424FD8013313430B622168CA6922F4D6
:101A30004F4222F0FF026668464B9E424CD8431E3E
:101A40007600B3FBF6F3013340F6FC70034278D026
:101A5000C3F30B031343CB6121680B6823F0C0036E
:101A6000E269206A024313430B6021688B6823F408
:101A7000034323F0FF032269E068024313438B60B2
:101A80002168CB6823F0FF036269A0690243134316
:101A9000CB602268136843F00103136000202064C8
:101AA000202384F83D30206384F83E0070BD80F828
:101AB0003C30FFF763FC82E7294B98428CBF002340
:101AC000012399E74FF4967505FB03F3254DA5FB1C
:101AD00003539B090133A6E7A368BBB9451E06EB78
:101AE000460CB5FBFCF50135C5F30B05B5FA85F5DC
:101AF0006D0945BBC3B9013806EB4603B0FBF3F3F0
:101B00000133C3F30B0343F40043A3E7451E06EB85
:101B1000860C0CEB8C0CB5FBFCF50135C5F30B0505
:101B2000B5FA85F56D09E4E7013806EB860303EBAA
:101B30008303B0FBF3F30133C3F30B0343F44043DC
:101B400088E7042386E7012384E70120704701200A
:101B5000ACE700BFA08601007F841E0083DE1B432C
:101B6000FF083D00D34D62102DE9F04385B00446D7
:101B70000F46914698460C9E01F09AF9054694F856
:101B80003D00C0B2202804D00227384605B0BDE889
:101B9000F0830095192301224F492046FFF7E5FC09
:101BA000002840F0928094F83C30012B00F08F80A8
:101BB000012384F83C3023681A6812F0010F03D126
:101BC0001A6842F001021A602268136823F4006365
:101BD0001360212384F83D30102384F83E30002325
:101BE0002364C4F82490A4F82A80638D23853B4B9A
:101BF000E3622B46324639462046FFF749FD074649
:101C0000002866D10023039323685A6903929B69D5
:101C10000393039B11E0236C042B01D00127B4E74D
:101C20002268136843F400731360F7E72A463146CD
:101C30002046FFF75BFE00282ED1238D002B36D0E7
:101C40002A4631462046FFF77DFD0028E3D1626A2F
:101C5000236812781A61606A431C6362618D89B2DD
:101C6000013989B26185238D013B9BB223852268AE
:101C7000516911F0040FD9D0002BD7D043781361EC
:101C8000636A01336362638D9BB2013B9BB26385E0
:101C9000238D013B2385C9E7236C042B01D0012749
:101CA00073E72268136843F400731360F7E7226850
:101CB000136843F400731360202384F83D3000233D
:101CC00084F83E3084F83C305FE702275DE7022766
:101CD0005BE7012759E700BF020010000000FFFF8B
:101CE0002DE9F04387B004460F4690469946109E72
:101CF00001F0DEF8054694F83D00C0B2202804D07B
:101D00000227384607B0BDE8F08300951923012269
:101D100088492046FFF729FC002840F0438194F8C9
:101D20003C30012B00F04081012384F83C302368D3
:101D30001A6812F0010F03D11A6842F001021A600A
:101D40002268136823F400631360222384F83D3073
:101D5000402384F83E30002323640E9B6362BDF869
:101D60003C306385638D2385734BE3620195009658
:101D70004B46424639462046FFF70EFD07460028EF
:101D800040F01481238D5BB9029323685A69029253
:101D90009A690292029A1A6842F400721A6075E017
:101DA000012B0AD0022B1AD00023059323685A690D
:101DB00005929B690593059B68E02268136823F4EC
:101DC000806313600023039323685A6903929A691E
:101DD0000392039A1A6842F400721A6056E022686D
:101DE000136823F4806313602268136843F400636C
:101DF00013600023049323685A6904929B69049337
:101E0000049B43E02A4631462046FFF799FD00280F
:101E100040F0CE8023681A69636A1A70636A0133DE
:101E20006362238D013B2385638D9BB2013B9BB293
:101E300063852BE000953346002240492046FFF79A
:101E400094FB002840F0B6802268136843F40073C6
:101E5000136023681A69636A1A70626A531C6362AA
:101E6000238D013B2385638D9BB2013B9BB2638530
:101E700023681B695370636A01336362238D013BDE
:101E80002385638D9BB2013B9BB26385238D002B21
:101E90007FD0032B54D8012BB4D0022BCAD000958D
:101EA0003346002225492046FFF75FFB002840F01B
:101EB00083802268136823F48063136023681A699F
:101EC000636A1A70636A01336362238D013B238561
:101ED000638D9BB2013B9BB2638500953346002224
:101EE00016492046FFF741FB002867D12268136896
:101EF00043F40073136023681A69636A1A70626A94
:101F0000531C6362238D013B2385638D9BB2013B90
:101F10009BB2638523681B695370636A01336362F4
:101F2000238D013B2385638D9BB2013B9BB263856F
:101F3000ACE700BF020010000000FFFF040001003A
:101F40002A4631462046FFF7FBFC002838D123689B
:101F50001A69636A1A70626A531C6362238D013BBB
:101F60002385638D9BB2013B9BB2638523685969CE
:101F700011F0040F8AD01B695370636A01336362E6
:101F8000238D013B2385638D9BB2013B9BB263850F
:101F90007CE7202384F83D30002384F83E3084F829
:101FA0003C30AEE60227ACE60227AAE60127A8E607
:101FB0000127A6E60127A4E60127A2E60127A0E65D
:101FC00001279EE6002800F09B8070B50D46044670
:101FD0004F4B1B6803F00F038B4208D2CBB24C4A25
:101FE0001370136803F00F038B4240F08B8023685B
:101FF00013F0020F17D013F0040F04D0454A936872
:1020000043F4E0539360236813F0080F04D0414A6F
:10201000936843F4604393603E4A936823F0F0036F
:10202000A1680B439360236813F0010F32D06368FB
:10203000012B21D09A1E012A25D9364A126812F0A6
:10204000020F61D033498A6822F0030213438B6088
:1020500000F02EFF06462F4B9B6803F00C036268CE
:10206000B3EB820F16D000F023FF801B41F28833C0
:102070009842F0D9032042E0264A126812F4003F49
:10208000E0D101203BE0234A126812F0007FD9D151
:10209000012034E01E4B1B6803F00F03AB4207D94D
:1020A000EAB21B4B1A701B6803F00F03AB422DD131
:1020B000236813F0040F06D0164A936823F4E05304
:1020C000E1680B439360236813F0080F07D0114AAF
:1020D000936823F46043216943EAC103936000F0ED
:1020E00047F80C4B9B68C3F303130B4AD35CD840EF
:1020F0000A4B18600A4B186800F08EFE002070BD75
:10210000012070470120FAE70120F8E70120F6E7F7
:10211000003C02400038024098630008080000209C
:1021200004000020014B1868704700BF0800002021
:1021300008B5FFF7F7FF044B9B68C3F38223034AFC
:10214000D35CD84008BD00BF00380240A863000837
:1021500008B5FFF7E7FF044B9B68C3F34233034A1C
:10216000D35CD84008BD00BF00380240A863000817
:1021700008B55C4B9B6803F00C03082B07D00C2BB5
:102180005BD0042B01D0584808BD5848FCE7554B9C
:102190005A6802F03F025B6813F4800F2AD0514B5B
:1021A0005968C1F3881C4FEA4C11B1EB0C006EEB7F
:1021B0000E0E4FEA8E1343EA90638101091A63EB16
:1021C0000E03DB0043EA5173C90011EB0C0C43F121
:1021D0000003590200234FEA4C2041EADC51FEF78C
:1021E00003FD404B5B68C3F3014301335B00B0FB6D
:1021F000F3F0C9E73B4B5968C1F3881C4FEA4C1117
:10220000B1EB0C006EEB0E0E4FEA8E1343EA9063B7
:102210008101091A63EB0E03DB0043EA5173C90025
:1022200011EB0C0C43F10003990200234FEA8C20C0
:1022300041EA9C51FEF7D8FCD3E72A4B5A6802F0DA
:102240003F025B6813F4800F28D0264B5968C1F316
:10225000881C4FEA4C11B1EB0C006EEB0E0E4FEAEE
:102260008E1343EA90638101091A63EB0E03DB00CE
:1022700043EA5173C90011EB0C0C43F100035902FE
:1022800000234FEA4C2041EADC51FEF7ADFC154B30
:102290005B68C3F30273B0FBF3F075E7114B596849
:1022A000C1F3881C4FEA4C11B1EB0C006EEB0E0E23
:1022B0004FEA8E1343EA90638101091A63EB0E0320
:1022C000DB0043EA5173C90011EB0C0C43F100032E
:1022D000990200234FEA8C2041EA9C51FEF784FCCE
:1022E000D5E700BF003802400024F40000127A0055
:1022F000002800F0018270B582B00446036813F034
:10230000010F41D0994B9B6803F00C03042B32D092
:10231000964B9B6803F00C03082B27D0934B9B68CC
:1023200003F00C030C2B59D06368B3F5803F5BD0EE
:10233000B3F5A02F5ED08D4B1A6822F480321A605C
:102340001A6822F480221A606368002B5CD000F0C7
:10235000AFFD0546854B1B6813F4003F14D100F018
:10236000A7FD401B6428F5D90320CCE17F4B5B68B7
:1023700013F4800FD2D07D4B1B6813F4003F03D0C1
:102380006368002B00F0BA81236813F0020F60D05D
:10239000764B9B6813F00C0F4AD0744B9B6803F08C
:1023A0000C03082B3FD0714B9B6803F00C030C2BE4
:1023B00069D0E368002B75D06D4B01221A6000F0E4
:1023C00077FD0546694B1B6813F0020F61D100F0E1
:1023D0006FFD401B0228F5D9032094E1634B5B6835
:1023E00013F4800FA0D0C6E7604A136843F480332B
:1023F0001360A9E75D4B1A6842F480221A601A68DC
:1024000042F480321A609FE700F052FD0546574BB8
:102410001B6813F4003FB7D000F04AFD401B64284E
:10242000F5D903206FE1514B5B6813F4800FBAD1EB
:102430004E4B1B6813F0020F03D0E368012B40F0F2
:102440005F814A4A136823F0F803216943EAC10314
:102450001360236813F0080F49D06369002B33D051
:10246000434B0122C3F8802E00F022FD05463F4B6E
:102470005B6F13F0020F3AD100F01AFD401B0228E7
:10248000F5D903203FE1394B5B6813F4800F90D1FD
:10249000CEE7364A136823F0F803216943EAC10303
:1024A0001360D6E7324B00221A6000F001FD0546AA
:1024B0002E4B1B6813F0020FCBD000F0F9FC401B31
:1024C0000228F5D903201EE1294B0022C3F8802EF3
:1024D00000F0EEFC0546254B5B6F13F0020F06D0B3
:1024E00000F0E6FC401B0228F5D903200BE123682D
:1024F00013F0040F76D01D4B1B6C13F0805F33D1AB
:1025000000230193194B1A6C42F080521A641B6C21
:1025100003F080530193019B0125164B1B6813F4B4
:10252000807F29D0A368012B3AD0052B3ED00F4BDA
:102530001A6F22F001021A671A6F22F004021A675A
:10254000A368002B3CD000F0B3FC0646074B1B6F82
:1025500013F0020F45D100F0ABFC801B41F2883331
:102560009842F3D90320CEE00025D6E70038024098
:1025700000004742007000406B4A136843F48073C8
:10258000136000F095FC0646674B1B6813F4807FD0
:10259000C8D100F08DFC801B0228F5D90320B2E0E1
:1025A000624A136F43F001031367C9E75F4B1A6F69
:1025B00042F004021A671A6F42F001021A67BFE77D
:1025C00000F076FC0646594B1B6F13F0020F08D043
:1025D00000F06EFC801B41F288339842F3D903204F
:1025E00091E0EDB9A369002B00F08C804F4A92680E
:1025F00002F00C02082A54D0022B17D04C4B0022B8
:102600001A6600F055FC0446484B1B6813F0007F27
:1026100045D000F04DFC001B0228F5D9032072E0E4
:10262000424A136C23F080531364DBE7404B0022D3
:102630001A6600F03DFC05463C4B1B6813F0007F1A
:1026400006D000F035FC401B0228F5D903205AE0E3
:10265000E369226A1343626A43EA8213A26A520858
:10266000013A43EA0243E26A43EA0263226B43EA25
:1026700002732E4A53602E4B01221A6600F018FC9A
:1026800004462A4B1B6813F0007F06D100F010FCB3
:10269000001B0228F5D9032035E0002033E000209C
:1026A00031E0012B31D0214B5B6803F48001E269FA
:1026B00091422CD103F03F02216A8A4229D1616AFA
:1026C00047F6C0721A40B2EB811F24D103F44031A7
:1026D000A26A5208013AB1EB024F1ED103F07062B8
:1026E000E16AB2EB016F1AD103F0E043226BB3EB66
:1026F000027F16D1002006E001207047012002E091
:10270000012000E0002002B070BD0120FBE70120A5
:10271000F9E70120F7E70120F5E70120F3E70120C1
:10272000F1E70120EFE700BF0070004000380240F1
:102730000000474200230F2B00F2DE8070B582B00C
:1027400060E085685E000324B44025EA0405CC6897
:10275000B4402C438460456825EA02054C68C4F304
:1027600000129A402A4342605AE0DC08083450F8CC
:10277000246003F0070295000F22AA4026EA020E09
:102780000A69AA4042EA0E0240F824205CE00622D0
:1027900000E0002202FA0EF22A430234574D45F8B7
:1027A0002420574A14686FEA0C0224EA0C054E688C
:1027B00016F4803F01D04CEA0405514C2560646852
:1027C00002EA04054E6816F4003F01D04CEA040505
:1027D0004B4C6560A46802EA04054E6816F4801F3D
:1027E00001D04CEA0405464CA560E46822404D68DF
:1027F00015F4001F01D04CEA0402414CE2600133A1
:102800000F2B77D801229A400C6804EA020C32EAB6
:102810000404F4D14C6804F00304013C012C90D969
:102820004A6802F00302032A09D0C4685D0003224B
:10283000AA4024EA02048A68AA402243C2604A6885
:1028400002F00302022A90D004684FEA430E0322EA
:1028500002FA0EF224EA02044A6802F0030202FAC3
:102860000EF2224302604A6812F0805FC7D0002255
:102870000192244A546C44F480445464526C02F42F
:1028800080420192019A9C08A51C1C4A52F82550CE
:1028900003F003024FEA820E0F2202FA0EF225EA3B
:1028A0000205194A90423FF474AF02F580629042EB
:1028B00016D002F58062904214D002F580629042F8
:1028C00012D002F58062904210D002F580629042F0
:1028D0000ED002F5806290423FF459AF072259E7CB
:1028E000012257E7022255E7032253E7042251E76A
:1028F00005224FE702B070BD704700BF00380140AD
:10290000003C014000380240000002400AB18161F1
:102910007047090481617047436901EA030221EAB3
:10292000030141EA02418161704730B405682C68B7
:1029300024F480242C60046863608368402B05D0F5
:10294000036899600368DA6030BC704703689A6076
:102950000368D960F8E7000010B40368D9B21039F1
:102960000C4AA2FB014212090B4CA25CC2655F2912
:1029700009D923F47F7323F0030304338365806D47
:102980005DF8044B704723F47F7323F003038365E2
:10299000F5E700BFABAAAAAA90630008836A826920
:1029A00092B9012B0AD0022B02D00BB10020704744
:1029B000C36A13F0807F28D100207047C36AB3F147
:1029C000C07F24D000207047B2F5005F09D0022BF1
:1029D00025D9032B25D1C36A13F0807F23D1002092
:1029E0007047032B03D8DFE803F01404140A002017
:1029F0007047C36A13F0807F0DD100207047C36A0F
:102A0000B3F1C07F09D0002070470120704701203A
:102A10007047012070470120704701207047012056
:102A200070470020704701207047000070B50446D1
:102A300000F03EFA002C5BD00546002384F83430C9
:102A4000022384F835302268136823F001031360F1
:102A500023681A6812F0010F0AD000F029FA431B0C
:102A6000052BF5D920236365032084F8350070BD5C
:102A70001A68204810406168A2680A43E1680A4366
:102A800021690A4361690A43A1690A43E1690A436A
:102A9000216A0A430243616A04291ED01A6026682B
:102AA000756925F00705636A1D43042B07D1A36AE6
:102AB0001D43E36A1BB12046FFF770FF90B97561B3
:102AC0002046FFF749FFE26D3F23934083600020DB
:102AD0006065012384F83530C9E7E16A206B014362
:102AE0000A43DBE740236365012084F83500BEE735
:102AF0000120BCE73F8010F038B50446856D90F8A2
:102B0000340001282BD0012084F8340094F83500DB
:102B1000C0B2012804D0002384F83430022038BD2C
:102B2000022084F83500002060652046FFF7FDFE96
:102B3000E26D3F239340AB602268136843F01603B5
:102B40001360236C23B12268136843F008031360F9
:102B50002268136843F0010313600020DFE70220BE
:102B6000DDE70000F0B583B0044600230193724B0B
:102B70001D68724BA3FB0535AD0A876D3E68C26DBB
:102B800008239340334210D003681A6812F0040FF0
:102B90000BD01A6822F004021A60C26D0823934019
:102BA000BB60436D43F001034365E26D0123934035
:102BB000334209D02268526912F0800F04D0BB6002
:102BC000636D43F002036365E26D04239340334277
:102BD00009D02268126812F0020F04D0BB60636D46
:102BE00043F004036365E26D10239340334224D025
:102BF0002268126812F0080F1FD0BB6023681A68A1
:102C000012F4802F0DD01B6813F4002F04D1236C15
:102C10009BB12046984710E0A36C73B120469847BB
:102C20000BE01A6812F4807F03D11A6822F00802C0
:102C30001A60236C0BB120469847E26D2023934025
:102C4000334255D02268126812F0100F50D0BB608A
:102C500094F83530DBB2052B0ED023681A6812F4D5
:102C6000802F33D01B6813F4002F2AD1636C002B04
:102C70003ED0204698473BE02268136823F01603B5
:102C800013602268536923F080035361236CA3B15E
:102C90002268136823F008031360E26D3F2393401A
:102CA000BB60002384F83430012384F83530236D71
:102CB000002B3FD0204698473CE0A36C002BE7D187
:102CC000EBE7E36BA3B12046984711E01A6812F4D2
:102CD000807F09D11A6822F010021A60002384F85C
:102CE0003430012384F83530E36B0BB1204698472C
:102CF000636DFBB1636D13F0010F17D0052384F8EA
:102D000035302268136823F001031360019B0133FF
:102D10000193AB4204D823681B6813F0010FF5D16F
:102D2000002384F83430012384F83530E36C0BB190
:102D30002046984703B0F0BD08000020B5814E1B27
:102D4000074AD36823F4E0631B041B0C000200F461
:102D5000E060034343F0BF6343F40033D360704744
:102D600000ED00E000B5194BDB68C3F30223C3F1AB
:102D7000070CBCF1040F28BF4FF0040C03F1040E44
:102D8000BEF1060F18D9033B4FF0FF3E0EFA0CFCC4
:102D900021EA0C0199400EFA03F322EA03031943D6
:102DA00000280BDB0901C9B200F1604000F5614069
:102DB00080F800135DF804FB0023E5E700F00F0046
:102DC0000901C9B2024B1954F4E700BF00ED00E05D
:102DD00014ED00E0002807DB00F01F02400901238A
:102DE0009340024A42F82030704700BF00E100E003
:102DF0000138B0F1807F0BD24FF0E0235861054AD3
:102E0000F02182F823100020986107221A61704790
:102E10000120704700ED00E010B504460E4B187815
:102E20004FF47A73B3FBF0F30C4A1068B0FBF3F085
:102E3000FFF7DEFF68B90F2C01D901200AE000225C
:102E400021464FF0FF30FFF78DFF054B1C6000203F
:102E500000E0012010BD00BF00000020080000209D
:102E60000400002008B50B4B1A6842F400721A6087
:102E70001A6842F480621A601A6842F480721A601A
:102E80000320FFF75DFF0020FFF7C6FFFEF734FBCE
:102E9000002008BD003C0240034A1168034B1B7828
:102EA0000B441360704700BF0004002000000020A6
:102EB000014B1868704700BF0004002038B5044675
:102EC000FFF7F6FF0546B4F1FF3F02D0044B1B7835
:102ED0001C44FFF7EDFF401BA042FAD338BD00BFF2
:102EE000000000200268D36823F0C003D3602023D1
:102EF00080F83D3070470268D36823F49073D36044
:102F00000268536923F001035361036B012B05D061
:102F1000202380F83E300023036370470268D368A3
:102F200023F01003D360F3E738B504460268136951
:102F300023F44053C1680B43136183680269134350
:102F400042691343C2691A430168CB6823F41643EC
:102F500023F00C031343CB600268536923F44073DE
:102F600081690B4353610368314A934206D002F5ED
:102F70008062934202D0FFF7DBF801E0FFF7E8F848
:102F8000E369B3F5004F29D00021031849411B180C
:102F900041F10001C90041EA5371DB001818636870
:102FA0004FEA83024FEA937341F10001FDF71CFEE3
:102FB000204DA5FB00325109642303FB11031B01C3
:102FC0003233A5FB03235B0903F0F00202EB01128D
:102FD00003F00F03216813448B6038BD00230218EF
:102FE00043EB0301121841F10001C90041EA52719B
:102FF000D200101841F10001626892185B41FDF7A0
:10300000F3FD0C4DA5FB00325109642303FB1103B2
:10301000DB003233A5FB03235B095A0002F4F8728C
:1030200002EB011203F00703216813448B60D4E71D
:10303000001001401F85EB512DE9F84305460F466E
:1030400016469946DDF820802C68246837EA040388
:103050000CBF4FF0010C4FF0000CB4451FD1B8F17C
:10306000FF3FF1D0B8F1000F05D0FFF721FFA0EB33
:1030700009004045E8D92A68D36823F4D073D360A7
:103080002A68536923F001035361202385F83D30FA
:1030900085F83E30002385F83C30032000E0002016
:1030A000BDE8F88358B310B5044690F83D300BB333
:1030B000242384F83D302268D36823F40053D3607E
:1030C0002046FFF731FF2268136923F49043136110
:1030D0002268536923F02A0353612268D36843F4BA
:1030E0000053D36000202064202384F83D3084F80E
:1030F0003E3010BD80F83C30FEF794F9D8E701204F
:1031000070472DE9F04182B01E4690F83D30DBB2A9
:10311000202B54D104460D469046002953D0002A56
:1031200053D090F83C30012B51D0012380F83C3033
:1031300000230364212380F83D30FFF7B9FE0746E2
:10314000A4F82480A4F82680A368B3F5805F05D096
:103150004FF00008002384F83C3012E0236913B1DB
:103160004FF00008F6E7A8460025F3E738F8023BE1
:103170002268C3F308035360E28C92B2013A92B220
:10318000E284E38C9BB273B100963B46002280211F
:103190002046FFF751FFE0B9002DE7D015F8012BCD
:1031A00023685A60E8E700963B460022402120460B
:1031B000FFF742FF78B9202384F83D3000E0022079
:1031C00002B0BDE8F0810120FAE70120F8E7022013
:1031D000F6E70320F4E70320F2E77047704710B5E5
:1031E000846B23685A6994F83D30DBB2212B10D0F0
:1031F00023685A6902F0400294F83E30DBB2222B79
:1032000011D0236C43F0100323642046FFF7E6FF40
:1032100010BD02F08002002AEAD00023E384204699
:10322000FFF760FEE4E7002AEBD00023E3852046A9
:10323000FFF761FEE5E7704708B5806B036B012B74
:1032400002D0FFF7CAFF08BD818D4908FFF7F3FFE1
:10325000F9E708B50346806B1B681B6813F4807F91
:1032600016D10023C3850268D36823F48073D3602A
:103270000268536923F0010353610268536923F024
:1032800040035361202380F83E30036B012B05D0AF
:10329000036B012B08D0FDF729FE08BD0268D36837
:1032A00023F01003D360F3E7818DFFF7C4FFF4E749
:1032B00030B583B0044613468162828500250564DB
:1032C000222280F83E20826B1448D063A26B1448FF
:1032D0001064A26B1348D064A26B156520680A467F
:1032E000011DA06BFFF708FC019523681A68019285
:1032F0005A680192019A84F83C50DA6842F480726C
:10330000DA602268536943F001035361226853690C
:1033100043F040035361284603B030BD53320008E8
:1033200039320008DF31000808B590F83E30DBB2D2
:10333000202B0DD171B17AB190F83C30012B0DD01A
:10334000012380F83C3000230363FFF7B1FF00E066
:10335000022008BD0120FCE70120FAE70220F8E77F
:10336000034AD2F8883043F47003C2F888307047BB
:1033700000ED00E04164704700B585B08DF80C1099
:103380008DF80D20416C64230093022303AA89B2B7
:10339000FEF7EAFB05B05DF804FB38B504460022F1
:1033A0002D21FFF7E9FF054608B1284638BD082260
:1033B0002D212046FFF7E0FF05460028F5D1002229
:1033C00031212046FFF7D8FFEFE730B585B0446CD8
:1033D000642502959BB2019300910123A1B2FEF7EF
:1033E0007FFC05B030BD000010B50C46062332222C
:1033F0000C49FFF7EAFF0C4B187078B9094B597864
:103400001A7802EB01222280D9789A7802EB012205
:1034100062805A791B7903EB0223A380024B187850
:1034200010BD00BF040400200A04002008B50123D9
:103430000022FFF7CAFF08BD00B583B0002101914B
:10344000094B1A6B42F400121A631B6B03F400134E
:103450000193019B0A461020FFF784FC1020FFF720
:10346000B9FC03B05DF804FB00380240DFF834D04B
:103470000D480E490E4A002302E0D458C4500433CC
:10348000C4188C42F9D30B4A0B4C002301E01360A3
:103490000432A242FBD3FFF763FF00F011F8FDF7FF
:1034A00019FE70470000022000000020DC0100200F
:1034B000DC670008DC01002020040020FEE700009B
:1034C00070B50D4D0D4C641BA4100026A64209D109
:1034D0000B4D0C4C02F00CFF641BA4100026A642FE
:1034E00005D170BD55F8043B98470136EEE755F815
:1034F000043B98470136F2E7D4670008D467000818
:10350000D4670008D867000802440346934200D1FC
:10351000704703F8011BF9E72DE9FF4755EC104B05
:10352000002D0E4619462B46BBBF05F100431D4634
:1035300000232D230B700D9BDDF830A0914623F066
:103540002008BCBF22461446B8F1460F05D0B8F19A
:10355000450F00D10136022100E0032103AB0193A6
:1035600002AB009345EC104B5346324600F0ECFCA6
:10357000B8F1470F074602D119F0010F22D0B8F178
:10358000460F07EB060910D13B78302B0AD10022F9
:10359000002320462946FDF7B7FA18B9C6F10106FF
:1035A000CAF80060DAF8003099440022002320466F
:1035B0002946FDF7A9FA08B1CDF80C903022039BFB
:1035C0004B4507D3039B0E9ADB1B3846136004B0B0
:1035D000BDE8F087591C03911A70F0E7F7B5034670
:1035E0000029B8BF494203F8022BB4BF2D222B2279
:1035F000092942702ADD0DF10704A4460A27A646D0
:103600000A4691FBF7F607FB16153035632A04F1DD
:10361000FF340EF8015C3146F1DC3031AEF10205C9
:1036200004F8011C441C294661450AD30DF1090226
:10363000A2EB0E02654588BF00221344181A03B09E
:10364000F0BD11F8012B04F8012FEDE730233031E4
:103650008370C170031DF1E72DE9F04F2DED028B52
:103660008DB00C46DDF8608016461F46054601F019
:1036700059FAD0F800A05046FCF7CAFD00230A937F
:1036800023680593D8F8003094F818B0073323F076
:10369000070303F10802C8F80020D3E90023C4E9B6
:1036A0001223D4E9128929F000430793CDF818803A
:1036B00008EE100A9F4BDDE906014FF0FF32FDF7DF
:1036C00055FA88BBDDE906019A4B4FF0FF32FDF752
:1036D0002FFA48BB0022002340464946FDF71EFA58
:1036E00010B12D2384F84330934B9448BBF1470F1E
:1036F00094BF9846804603232361059B23F0040270
:1037000022604FF00009009733460BAA2146284655
:1037100000F0D8F9013040F090804FF0FF300DB04C
:10372000BDEC028BBDE8F08F42464B464046494611
:10373000FDF71CFA40B14B46002BBCBF2D2384F88B
:1037400043307F487F4BD1E763680BF0DF0206927E
:103750005A1C3FD106236360059B616843F4806275
:10376000002303930AABCDE901B309AB49EC108BFD
:10377000009322600DF123032846FFF7CDFE069B40
:103780000999472B804608D1C81C02DB636899421F
:1037900041DDABF1020B5FFA8BFBBBF1650F20D86B
:1037A00001395A4604F150000991FFF717FF0A9AB0
:1037B0001318012A8146236102DC2268D20701D551
:1037C000013323619DF82330002B9CD02D2384F8F6
:1037D000433098E7069A472ABED1002BBCD101237B
:1037E000B9E7BBF1660F18D1002963680BDD2161D1
:1037F00013B92268D00702D501330B442361A165B8
:103800004FF00009DEE713B92268D20701D5023371
:10381000F4E70123F2E74FF0670B0A9B994205DBBF
:1038200023682161D807EAD54B1CE7E70029D4BFFC
:10383000C1F1020201221344E0E723685A0507D4CC
:103840002369424631462846B84701302CD164E707
:10385000BBF1650F40F2E080D4E9120100220023A1
:10386000FDF752F9002834D0374A01233146284663
:10387000B84701303FF451AFDDE909239A4202DB3A
:103880002368D80710D518EE103A5246314628461C
:10389000B84701303FF441AF4FF0000804F11A0976
:1038A0000A9B013B434509DC23689B0700F1058126
:1038B000E0680B9B9842B8BF184630E701234A46A0
:1038C00031462846B84701303FF427AF08F10108D8
:1038D000E6E7099B002B39DC1B4A012331462846C9
:1038E000B84701303FF419AFDDE90923134302D192
:1038F0002368D907D8D518EE103A524631462846E3
:10390000B84701303FF409AF4FF0000904F11A0A3B
:10391000099B5B424B4501DC0A9B92E7012352461F
:1039200031462846B84701303FF4F7AE09F10109A6
:10393000EEE700BFFFFFEF7FB4630008B863000845
:10394000C0630008BC630008C46300080A9AA36D42
:103950009A42A8BF1A46002A914637DC4FF0000B66
:1039600029EAE97904F11A02A36D0593A3EB09038F
:103970005B4533DCDDE909239A423BDB2368DA0748
:1039800038D40A9B059A09999A1AA3EB0109914523
:10399000A8BF9146B9F1000F35DC4FF0000829EAC5
:1039A000E97904F11A0ADDE909239B1AA3EB09035B
:1039B00043457FF779AF0123524631462846B84741
:1039C00001303FF4AAAE08F10108ECE71346314696
:1039D00042462846B8470130C0D19EE60123314611
:1039E00028460592B84701303FF497AE059A0BF18F
:1039F000010BB9E718EE103A524631462846B8474F
:103A00000130BED189E6059A4B46424431462846EC
:103A1000B8470130C1D180E60A9A012A01DCDB07F0
:103A200038D50123424631462846B84701303FF495
:103A300074AE18EE103A524631462846B847013067
:103A40003FF46BAED4E9120100220023FDF75CF8CD
:103A5000D8B90A9B08F10102013B31462846B84714
:103A600001300ED159E60123524631462846B84767
:103A700001303FF452AE08F101080A9B013B434577
:103A8000F1DC4B4604F15002DCE64FF0000804F193
:103A90001A0AF2E701234246DFE701234A4631468C
:103AA0002846B84701303FF438AE08F10108E36812
:103AB0000B995B1A4345F0DCFAE64FF0000804F17D
:103AC0001909F4E72DE9F047164699468A680B690B
:103AD000DDF820809342B8BF1346336091F843204D
:103AE00007460C460AB1013333602368990642BF8A
:103AF000336802333360256815F0060506D104F1FA
:103B0000190AE36832689B1AAB4226DC94F843201A
:103B1000131E226818BF012392062BD404F143021E
:103B200049463846C04701301ED02368E5683268F0
:103B300003F00603042B08BFAD1AA36822690CBF6B
:103B400025EAE57500259342C4BF9B1AED180026AF
:103B50001A34B5421AD1002008E0012352464946E2
:103B60003846C047013003D14FF0FF30BDE8F08741
:103B70000135C6E7E1185A1C302081F84300224481
:103B800094F8451082F843100233C7E70123224618
:103B900049463846C0470130E6D00136D9E7000033
:103BA0002DE9FF470F7E0C9D782F914680460C46ED
:103BB0009A4601F1430207D8622F0AD8002F00F07D
:103BC000D880582F00F0A38004F1420584F8427099
:103BD0003AE0A7F16303152BF6D801A151F823F0C1
:103BE000393C00084D3C0008C93B0008C93B0008AF
:103BF000C93B0008C93B00084D3C0008C93B000810
:103C0000C93B0008C93B0008C93B0008593D0008F2
:103C10007D3C00083B3D0008C93B0008C93B00084B
:103C20007B3D0008C93B00087D3C0008C93B0008FB
:103C3000C93B0008433D00082B681A1D1B682A6019
:103C400004F1420584F842300123A3E0206829688A
:103C5000060601F104030AD50E682B60002E03DA74
:103C60002D23764284F843305E480A2319E00E681B
:103C70002B6010F0400F18BF36B2EFE72B682068BA
:103C8000191D2960010601D51E6802E04606FBD514
:103C90001E8854486F2F0CBF08230A23002184F884
:103CA00043106568A560002DA2BF216821F00401C2
:103CB00021600EB9002D4DD01546B6FBF3F103FB84
:103CC0001167C75D05F8017D3746BB420E46F4D942
:103CD000082B0BD12368DE0708D523696168994258
:103CE000DEBF302305F8013C05F1FF35521B226190
:103CF000CDF800A04B4603AA21464046FFF7E2FE5E
:103D000001304CD14FF0FF3004B0BDE8F0873548AA
:103D100081F845702968236851F8046B29601D06F5
:103D200014D5DF0744BF43F0200323601EB9236886
:103D300023F0200323601023B0E7236843F020031F
:103D400023607823284884F84530E3E7590648BFC4
:103D5000B6B2E6E71546BBE72B6826686169181D11
:103D6000286035061B6801D5196002E07006FBD596
:103D70001980002323611546BAE72B681A1D2A60B3
:103D80001D68626800212846FCF74AFA08B1401B0A
:103D9000606063682361002384F84330A8E72369E7
:103DA0002A4649464046D0470130ABD023689B079E
:103DB00013D4E068039B9842B8BF1846A4E70123D8
:103DC000324649464046D04701309BD00135E36832
:103DD00003995B1AAB42F2DCEBE7002504F119060C
:103DE000F5E700BFC6630008D76300080EB400B54E
:103DF0009CB01DAB029006906FF0004109480791FE
:103E00000491094953F8042B05910068019302A914
:103E100001F038FB029B00221A701CB05DF804EB25
:103E200003B070470C0000200802FFFF2DE9F74F98
:103E300003690C69A3420746C0F28180013C01F18D
:103E4000140800F1140505EB8403019358F824309D
:103E500055F8242001339A424FEA840B08EB840979
:103E6000B2FBF3F631D34FF0000E4046AC46F246BB
:103E700050F8042B93B206FB03E34FEA134E9BB2B8
:103E8000AAEB0303120CDCF800A006FB02E213FA13
:103E90008AF34FEA124E1FFA82FADCF80020CAEBCE
:103EA000124202EB23429BB243EA024381454CF8A3
:103EB000043B4FEA224ADBD255F80B302BB9019B69
:103EC000043B9D421A462ED33C61384601F0C6F8A9
:103ED000002824DB013628464FF0000C58F8042B4C
:103EE000D0F800E093B2ACEB0303120C13FA8EF39C
:103EF000C2EB1E4202EB23429BB243EA0243C1459E
:103F000040F8043B4FEA224CE8D255F8242005EB58
:103F1000840322B9043B9D421A460AD33C613046D1
:103F200003B0BDE8F08F1268043B002ACCD1013CFD
:103F3000C7E71268043B002AF0D1013CEBE7002000
:103F4000EEE70000000000002DE9F04F2DED048B9E
:103F500057EC106B93B0456ADDF88080069110EE47
:103F600010AA044609920C93BB4675B9102000F0C4
:103F7000DDFD0246606220B9A74BEA21A74801F0A7
:103F800091FBC0E901550560C560636A196851B1CC
:103F90005A684A60012393408B60204600F01CFE63
:103FA000636A00221A603B1EAABF002323F0004B65
:103FB000C8F800309A4BBCBF0122C8F8002033EA91
:103FC0000B031BD10C9A42F20F731360CBF3130354
:103FD000334300F09285219B63B9924B22E0924BD0
:103FE00001930833219A1360019813B0BDEC048B40
:103FF000BDE8F08F8B4B01930333F3E700220023DE
:1040000050465946FCF780FD4BEC19AB804658B141
:104010000C9A01231360219B002B00F06B858348D1
:104020001860431E0193DFE74BEC10AB10AA11A9F7
:10403000204601F0B9F8CBF30A5508EE100A002D1E
:1040400000F0848019EE903AC3F3130343F07F57D6
:10405000564647F44017A5F2FF35CDF83880744B2B
:10406000002230463946FCF72FF965A3D3E9002337
:10407000FCF7E2FA64A3D3E90023FCF727F906462C
:1040800028460F46FCF76EFA61A3D3E90023FCF73C
:10409000D3FA02460B4630463946FCF717F9064676
:1040A0000F46FCF779FD0022009000233046394688
:1040B000FCF734FD50B10098FCF754FA32463B4609
:1040C000FCF722FD10B9009B013B0093009B162BCF
:1040D0005AD8009A574B03EBC203D3E9002351ECA3
:1040E000190BFCF71BFD002850D0009B013B0093EF
:1040F00000230B93109B5D1B6B1E059345BFC5F101
:1041000001030493002300234CBF05930493009BF9
:10411000002B3DDB059B009A0A9213440593002374
:104120000793069B092B00F28980052BC4BF043B33
:104130000693069BA3F10203CCBF00250125032BA8
:1041400000F28780DFE803F02D3A3859DDE910539B
:104150001D4405F23243202BC1BFC3F1400305F2D9
:1041600012400BFA03F326FA00F0DABFC3F1200382
:1041700006FA03F01843FCF7E5F901230646A1F11E
:10418000F877013D0E936AE70123B2E70B90B1E7A0
:10419000049B009A9B1A04935342079300230A93AB
:1041A000BFE700230893099B002B55DC0123CDE9D1
:1041B00002331A4609920CE00123F3E70023099A1F
:1041C0000893009B134402930133012B0393B8BF60
:1041D0000123606A00224260042202F114069E421A
:1041E00041683DD9204600F0B7FC019000283BD142
:1041F000114B02464FF4D571C0E60123DFE700BF43
:1042000061436F63A787D23FB3C8608B288AC63FDC
:10421000FB799F501344D33FF56300080C640008FA
:104220000000F07FF1630008E8630008C563000840
:104230000000F83F4065000889640008012500235C
:10424000069308954FF0FF33CDE902330022122385
:10425000B0E701230893F5E7099BCDE90233B8E7FE
:10426000013141605200B8E7636A019A1A60039B0A
:104270000E2B00F29D80002D00F09A80009B002BF9
:1042800032DDB74A03F00F0302EBC303D3E9008921
:10429000009BD8054FEA231716D5B24B51EC190BEA
:1042A000D3E90823FCF7F2FA07F00F0782468B46A2
:1042B0000325AC4E57B942464B4650465946FCF78B
:1042C000E5FA82468B4628E00225F2E7F90708D591
:1042D00040464946D6E90023FCF7AEF90135804651
:1042E00089467F100836E5E700F09B80009B9D4FD4
:1042F0005E429B4B06F00F0203EBC203D3E900239F
:1043000051EC190BFCF798F9361182468B460023C5
:104310000225002E7AD1002BD3D10B9B002B00F06D
:104320008280914B002250465946FCF7F7FB00284B
:1043300079D0039B002B76D0029B002B36DD009BAF
:10434000504659465F1E0022884BFCF775F9029EC5
:1043500082468B4601352846FCF704F952465B46F7
:10436000FCF76AF9824B0022FBF7B0FFD046D94632
:104370008246A1F1507B002E58D17E4B0022404650
:104380004946FBF7A1FF52465B4680468946FCF74B
:10439000E3FB002840F0958252460BF10043404673
:1043A0004946FCF7BBFB002840F089825BEC19AB67
:1043B000119B002BC0F24881009A0E2A00F3448121
:1043C000674B03EBC203D3E90089099B002B80F202
:1043D000D580039B002B00F3D18040F06F82654BAA
:1043E000002240464946FCF727F952465B46FCF757
:1043F000A9FB039E3746002840F04582019D3123EA
:1044000005F8013B009B0133009340E2F20705D51C
:10441000D7E90023FCF710F901350123761008379E
:1044200077E7022579E7009F039E94E701994C4BBB
:1044300031440D91089903EBC60353E90223002987
:1044400043D04D490020FCF721FA52465B46FBF76A
:104450003BFF019D82468B4649464046FCF79CFB4C
:104460000646FCF77FF802460B4640464946FBF7F6
:104470002BFF303605F8016B52465B468046894675
:10448000FCF74CFB002863D142464B4636490020DE
:10449000FBF71AFF52465B46FCF740FB002840F052
:1044A000B5800D9B9D4281D0304B0022504659462D
:1044B000FCF7C2F82D4B82468B4640464946002207
:1044C000FCF7BAF880468946C6E750465946FCF7DD
:1044D000B3F80D9B019D0F9382468B46494640469B
:1044E000FCF75AFB0646FCF73DF8303602460B4611
:1044F00040464946FBF7E8FE05F8016B0D9B9D42DF
:10450000804689464FF0000224D11B4B5046594645
:10451000FBF7DCFE02460B4640464946FCF71CFB17
:10452000002873D152465B4613490020FBF7CCFEAE
:1045300002460B4640464946FCF7F0FA00283FF495
:1045400035AF0F9D6B1E0F9315F8013C302BF8D043
:10455000009749E0054BFCF76FF880468946BDE7B8
:1045600040650008186500080000F03F0000244086
:1045700000001C40000014400000E03F019D564632
:104580005F4642464B4630463946FCF77FF9FCF71A
:1045900003FB8246FBF7E6FF42464B46FCF74CF82E
:1045A00002460B46304639460AF13006FBF78CFED0
:1045B00005F8016B019E039FAE1BB74202460B46F6
:1045C00035D1FBF783FE42464B4606460F46FCF7C5
:1045D000C3FAD0B942464B4630463946FCF794FA06
:1045E00010B11AF0010F10D1204618EE101A00F089
:1045F000F3FA002300982B700C9B01301860219B6C
:10460000002B3FF4F1AC1D60EEE4009F2B461D46ED
:1046100013F8012D392A06D1019A9A42F7D101994E
:10462000302201370A701A7801321A7090E7A64BCF
:104630000022FCF701F80022002306460F46FCF793
:1046400063FA00289DD0CFE7089A002A00F0D780AF
:10465000069A012A00F3BA800E9A002A00F0B2806E
:1046600003F23343079E049D049A1A440492059A68
:1046700001211A442046059200F066FB0746002DF2
:104680000CDD059B002B09DDAB42049AA8BF2B462D
:10469000D21A0492059AED1AD31A0593079B1BB3FD
:1046A000089B002B00F0AF80002E13DD3946324608
:1046B000204600F009FC18EE102A01460746204665
:1046C00000F058FB18EE101A8046204600F084FADD
:1046D00008EE108A079B9A1B06D018EE101A204687
:1046E00000F0F2FB08EE100A0121204600F02CFB3E
:1046F0000A9B002B064640F388801A460146204656
:1047000000F0E2FB069B012B064640F381804FF050
:104710000008336906EB8303186900F0C5FAC0F19D
:104720002000059B184410F01F0000F09280C0F19B
:104730002003042B40F38A80C0F11C00049B034437
:104740000493059B034405440593049B002B07DD5C
:1047500018EE101A1A46204600F010FC08EE100A57
:10476000059B002B05DD31461A46204600F006FC6D
:1047700006460B9B002B6ED018EE100A314600F057
:104780006DFC002867DA009B013B18EE101A0093BD
:104790000A220023204600F041FA089B08EE100A86
:1047A000002B00F0B181002339460A22204600F098
:1047B00035FA029B002B074600F38E80069B022BE6
:1047C00051DC89E0109BC3F136034BE7039B5E1E6F
:1047D000079BB342BFBF079B0796F21A0A9BB6BF5F
:1047E0009B189E1B0A93039BB8BF0026002BB7BFE4
:1047F000DDE90323DDE903359D1A002334E7079E35
:10480000049D089F3BE7079A67E7069B012B18DC8E
:10481000BAF1000F15D1CBF3130393B92BF000437A
:104820001B0D1B0583B1049B01330493059B0133CE
:1048300005934FF001080A9B002B7FF46AAF01201B
:104840006FE74FF00008F6E79846F4E73FF47DAFD6
:1048500018461C3072E7039B002B37DC069B022BAB
:1048600034DD039B0293029B6BB93146052220463F
:1048700000F0D4F90146064618EE100A00F0EEFBEF
:1048800000283FF7BBAD099B019DDB4300934FF030
:1048900000083146204600F09FF9002F3FF4A4AEF7
:1048A000B8F1000F05D0B84503D04146204600F0CE
:1048B00093F93946204600F08FF995E600263746F1
:1048C000E1E70097374699E500002440089B002B5C
:1048D00000F0CA80039B0293002D05DD39462A466D
:1048E000204600F04BFB0746B8F1000F5BD079681B
:1048F000204600F031F9054628B9874B024640F2C0
:10490000EA21FFF73BBB3A690232920007F10C0142
:104910000C3000F013F901222946204600F02EFB4E
:10492000019B03F10109DDE90123134405930AF01A
:104930000103B84604930746314618EE100AFFF704
:1049400075FA4146029000F1300A18EE100A00F0A4
:1049500085FB3A4603903146204600F09BFBC26837
:1049600009F1FF3B054602BB014618EE100A00F0B4
:1049700075FB024629462046079200F02DF9DDE935
:10498000063243EA0201049B0B434D460FD1BAF1B4
:10499000390F2AD0039B002B02DD029B03F1310A61
:1049A0008BF800A075E73846BAE70122E2E7039BDF
:1049B000002B04DB06990B4304990B4322D1002AF8
:1049C000EEDD18EE101A0122204600F0D7FA31462B
:1049D00008EE100A00F042FB002803DCE0D11AF0D8
:1049E000010FDDD0BAF1390FD7D139238BF8003060
:1049F0002B461D46013B15F8012C392A71D0013296
:104A00001A7046E7002A07DDBAF1390FEDD00AF136
:104A100001038BF800303CE7059B09F801AC994590
:104A200047D018EE101A00230A22204600F0F6F8AC
:104A3000B84508EE100A4FF000034FF00A02414655
:104A4000204606D100F0EAF88046074609F1010940
:104A500072E700F0E3F83946804600230A22204638
:104A600000F0DCF80746F1E7039B0293019D18EE86
:104A7000100A3146FFF7DAF900F1300A019B05F818
:104A800001ABEA1A029B934209DD18EE101A0023CB
:104A90000A22204600F0C2F808EE100AE7E7029B5F
:104AA000002BC8BF1D46019BD8BF01251D444FF0F8
:104AB000000818EE101A0122204600F05FFA314675
:104AC00008EE100A00F0CAFA002891DC02D11AF0B0
:104AD000010F8DD12B461D4613F8012D302AFAD037
:104AE000D7E6019A9A4284D1009B01330093312387
:104AF0001370CEE6094BFFF795BA219B002B7FF48C
:104B00006EAA074BFFF78EBA029B002BAEDC069B0A
:104B1000022B3FF7A8AEA9E789640008C463000828
:104B2000E86300080048704760010020024B01461E
:104B3000186800F0F1BB00BF0C0000200A4491424D
:104B400000F1FF3300D1704710B511F8014B03F8A5
:104B5000014F9142F9D110BD70B5466A04460D4629
:104B600076B91020FFF7E2FF0246606220B9184BC9
:104B70001848662100F096FDC0E901660660C6602F
:104B8000666AF36883B1636ADB6853F82500B8B9D5
:104B9000012101FA05F6721D9200204600F060FB2B
:104BA00060B1C0E901560EE021220421204600F048
:104BB00057FB636AF060DB68002BE4D1002070BD16
:104BC000026843F825200023C0E90333F7E700BF5C
:104BD000F56300089A64000870B5466A05460C46FD
:104BE00076B91020FFF7A2FF0246686220B9094B90
:104BF00009488A2100F056FDC0E901660660C660DA
:104C00003CB16B6A6268DB6853F82210216043F89C
:104C1000224070BDF56300089A6400082DE9F04158
:104C20000D6907460C461E4601F1140C0020DCF805
:104C3000003099B202FB01611E0C0B0C02FB063323
:104C400089B2013001EB034185424CF8041B4FEA65
:104C50001346ECDC0EB3A368AB4219DC616838463E
:104C60000131FFF779FF804628B902460C4B0D4809
:104C7000B52100F017FD2269023204F10C01920007
:104C80000C30FFF75BFF21463846FFF7A5FF44468F
:104C900004EB850301355E6125612046BDE8F081A6
:104CA000896400089A640008030C1B04D3B900044B
:104CB000102310F07F4F04BF0002083310F0704F34
:104CC00004BF0001043310F0404F04BF80000233E2
:104CD000002805DB10F0804F03F1010308BF2023FB
:104CE000184670470023E4E7036813F00702014603
:104CF0000BD0DA0723D4980749BF5B089B08012033
:104D00000B605CBF0B600220704798B2A8B91B0C07
:104D10001020DAB20AB908301B0A1A0704BF1B09AF
:104D200004309A0704BF9B080230DA0703D45B08FB
:104D300000F1010005D00B6070471046E9E7002044
:104D4000704720207047000010B50C460121FFF786
:104D500003FF024628B9054B05484FF4A07100F047
:104D6000A1FC01234461036110BD00BF89640008F8
:104D70009A6400082DE9F04F91460A69D9F810307D
:104D80009A42B8BF0B460C46BCBF4C4699462769B1
:104D9000D9F810A0A368616807EB0A06B34285B092
:104DA000B8BF0131FFF7D8FE30B90246444B454841
:104DB00040F25D1100F076FC00F1140505EB860869
:104DC0002B460022434521D304F1140303EB87074C
:104DD00009F1140303EB8A0202923A1B153A22F0FE
:104DE0000302043204F115018F4238BF04220192FC
:104DF000029A03939A420CD8002E03DD58F8043D22
:104E0000002B5AD0066105B0BDE8F08F43F8042BA3
:104E1000D8E7B3F800A0BAF1000F24D004F1140EC3
:104E2000A9464FF0000C5EF8042BD9F800101FFAC9
:104E300082FB89B20AFB0B114FEA124BD9F8002012
:104E400061444FEA124C0AFB0BC202EB114289B2D9
:104E500041EA0241774549F8041B4FEA124CE2D877
:104E6000019A45F802C0039AB2F802900433B9F1EE
:104E7000000F20D0296804F1140CAE464FF0000A50
:104E8000BCF800B0BEF8022009FB0B22924489B2A4
:104E900041EA0A414EF8041B5CF8042BBEF80010EE
:104EA000120C09FB021101EB1A4167454FEA114A46
:104EB000E6D8019AA95004359AE7013E9CE700BF65
:104EC000896400089A6400082DE9F843154612F039
:104ED000030206460F4607D0254C013A002354F83A
:104EE0002220FFF79BFE0746AD103DD0746A7CB9C7
:104EF0001020FFF71BFE0246706228B91D4B1E48AA
:104F00004FF4D77100F0CEFBC0E901440460C460E7
:104F1000D6F82480D8F808404CB940F271213046C8
:104F2000FFF712FF0023C8F80800044603604FF0A3
:104F30000009EB070AD5394622463046FFF71AFF2B
:104F4000394680463046FFF747FE47466D100BD086
:104F5000206838B9224621463046FFF70BFF206013
:104F6000C0F800900446E4E73846BDE8F88300BF87
:104F700008660008F56300089A6400082DE9F04708
:104F80000C464968236903EB6218A36807469146FB
:104F90004FEA621A08F10106B3420BDB3846FFF70D
:104FA000DBFD054648B902462A4B2B4840F2D91191
:104FB00000F078FB01315B00EEE7002300F1140103
:104FC00000F110021846534537DB20692AEAEA7AD5
:104FD00004F1140319F01F0901EB8A0103EB8000AF
:104FE0002FD0C9F1200E8A464FF0000C1A6802FA41
:104FF00009F242EA0C024AF8042B53F8042B9842B7
:1050000022FA0EFCF2D8031B153B23F003030433F2
:1050100004F11502904238BF042341F803C0BCF1EB
:10502000000F01D008F10206013E38462E612146EC
:10503000FFF7D2FD2846BDE8F08742F8040F0133A0
:10504000C1E7043953F8042B41F8042F9842F9D8EA
:10505000EAE700BF896400089A64000830B5026975
:105060000C69121B0ED100F11403143103EB840000
:1050700001EB840150F8045D51F8044DA54203D0C2
:1050800005D30122104630BD8342F3D3FAE74FF037
:10509000FF32F7E72DE9F84F0C4606461146204649
:1050A0009046FFF7DBFF051E10D129463046FFF77B
:1050B00053FD30B93A4B024640F23221394800F0F4
:1050C000F1FA0123C0E90435BDE8F88FA4BF4346D7
:1050D000A0463046D8F80410A6BF1C46002501257E
:1050E000FFF73AFD20B92E4B02464FF41071E5E769
:1050F000D8F810702669C56004F1140908F1140588
:1051000000F1140E05EB870C09EB860608F110027E
:10511000F246002159F8043B52F804BF1FFA83F805
:1051200011FA8BF11B0CA1EB0808C3EB1B4303EB3B
:1051300028431FFA88F819144E4548EA03434AF8F1
:10514000043BE7D8331B153B23F00303043315342A
:10515000A64238BF04231D4473449E462E4666452E
:105160000ED30CF10302521B22F00302033DAC45A7
:1051700038BF00221A4452F8043D7BB10761A3E70F
:1051800056F8048B11FA88F2141404EB184492B206
:1051900042EA04424EF8042B2114E0E7013FEAE71B
:1051A000896400089A6400082DE9F74389460121C3
:1051B00057EC106B9046FFF7CFFC044630B902461F
:1051C000254B264840F20A3100F06CFAC7F30A5525
:1051D000C7F3130335BB002E019328D06846009611
:1051E000FFF782FD009900B3019AC0F1200302FA93
:1051F00003F30B43C24063610192019BA361002B47
:1052000014BF022201222261D5B1A5F23345054423
:10521000C9F80050C0F13500C8F80000204603B0BE
:10522000BDE8F08343F48013D5E76161E5E701A8A9
:10523000FFF75AFD019B6361012222612030E3E701
:1052400004EB8203A0F23240C9F800001869FFF7AE
:105250002BFDC0EB4210DFE7896400089A64000868
:1052600013B54A431146019200F056F8044618B1AE
:10527000019A0021FEF748F9204602B010BD000057
:1052800037B5002944D051F8043C0190002BA1F11E
:105290000404B8BFE41800F061FA1E4A01981368CC
:1052A00033B96360146003B0BDE8304000F05CBA0D
:1052B000A34208D9256861198B4201BF19685B6850
:1052C00049192160EDE71A465B680BB1A342FAD990
:1052D00011685518A5420BD1246821445418A342E3
:1052E0001160E0D11C685B68536021441160DAE70B
:1052F00002D90C230360D6E7256861198B4204BFED
:1053000019685B68636004BF491921605460CAE78B
:1053100003B030BD0C040020F8B5CD1C25F003050A
:1053200008350C2D38BF0C25002D064601DBA9429F
:1053300003D90C2333600020F8BD00F00FFA214997
:105340000A6814469CB9204F3B6823B92146304671
:1053500000F098F938602946304600F093F9431C74
:1053600023D10C233360304600F0FEF9E3E72368D5
:105370005B1B17D40B2B03D923601C44256004E06E
:105380006368A2420CBF0B605360304600F0ECF93A
:1053900004F10B00231D20F00700C21ACCD01B1A09
:1053A000A350C9E722466468CCE7C41C24F0030478
:1053B000A042E3D0211A304600F064F90130DDD17B
:1053C000CFE700BF0C040020100400202DE9F047B7
:1053D0008E689E4282460C4690461F4638D88A897F
:1053E00012F4906F32D025680969A5EB010965694F
:1053F00005EB450505EBD57501334B446D109D421A
:1054000038BF1D46530531D52946FFF785FF0646AF
:1054100050B90C23CAF80030A38943F04003A3819C
:105420004FF0FF30BDE8F08721694A46FFF786FB61
:10543000A38923F4906343F08003A381266165610F
:105440004E44A5EB09052660A5603E46BE4200D944
:105450003E4620683246414600F066F9A3689B1B31
:10546000A3602368334423600020DBE72A4600F072
:1054700081F906460028E1D121695046FFF700FF77
:10548000C7E700002DE9F04F98468B891B069DB0B9
:1054900007460D4614460ED50B6963B94021FFF748
:1054A0003BFF2860286120B90C233B604FF0FF30A0
:1054B000D1E040236B610023099320238DF829302C
:1054C000CDF80C803023DFF8A8818DF82A304FF01A
:1054D000010923469A4613F8012B0AB1252AF9D16E
:1054E000BAEB040B0BD05B46224629463846FFF741
:1054F0006DFF013000F0AA80099A5A4409929AF887
:105500000030002B00F0A28000234FF0FF32CDE9E5
:1055100005230AF1010A049307938DF853301A9377
:105520005446052214F8011B5148FAF779FE049AF3
:10553000D8B9D00644BF20238DF85330110744BF9B
:105540002B238DF853309AF800302A2B15D0079A68
:10555000544600204FF00A0C214611F8013B303B25
:10556000092B4ED9B0B1079214E0A0EB080309FA59
:1055700003F313430493A246D2E7039B191D1B6850
:105580000391002BBBBF5B4242F0020207930793DB
:10559000B8BF049223782E2B0CD163782A2B35D1F7
:1055A000039B1A1D1B680392002BB8BF4FF0FF33FB
:1055B00002340593DFF8C8A0217803225046FAF799
:1055C0002FFE40B14023A0EB0A0003FA00F0049B39
:1055D00003430134049314F8011B26488DF8281066
:1055E0000622FAF71DFE002838D0234B1BBB039B75
:1055F000073323F0070308330393099B33440993CC
:1056000067E70CFB02320C460120A5E700230134BA
:10561000059319464FF00A0C204610F8012B303A3A
:10562000092A03D9002BC5D00591C3E70CFB012142
:1056300004460123F0E703AB00932A460F4B04A96D
:105640003846FEF709F8421C0646D6D1AB895B0600
:105650003FF52CAF09981DB0BDE8F08F03AB009368
:105660002A46064B04A93846FEF79AFAEBE700BF34
:10567000146600081E66000859360008CD5300085D
:105680001A66000838B5064D0023044608462B600C
:1056900000F016FE431C02D12B6803B1236038BD15
:1056A000140400201FB514461A46094B1B68054612
:1056B000D8684CB1074B0091CDE9013406492B461F
:1056C00000F00EF800F0A4FA044B1C46F3E700BF0C
:1056D0000C0000202566000832660008606600089D
:1056E0000EB403B5014603AB054853F8042B00681C
:1056F000019300F08FF802B05DF804EB03B070473F
:105700000C00002082B001B901A942B14BB113785D
:105710000B601278101E18BF012002B070471046AF
:10572000FBE76FF00100F8E7884210B501EB0204D7
:1057300002D98442234607D8431EA14208D011F85B
:10574000012B03F8012FF8E7024401468A4200D1F9
:1057500010BD13F8014D02F8014DF7E7014800F0C4
:1057600017BC00BF18040020014800F012BC00BFA5
:1057700018040020F8B5074614460E4621B9BDE8C6
:10578000F8401146FFF7C8BD22B9FFF779FD25465D
:105790002846F8BD00F064FCA0420FD221463846EE
:1057A000FFF7BAFD05460028F2D031462246FFF742
:1057B000C5F931463846FFF763FDE9E73546E7E7C7
:1057C0009368013B002B10B4936008DA9469A342FC
:1057D00001DB0A2903D15DF8044B00F04BB91368D3
:1057E000581C1060197008465DF8044B7047F8B5F6
:1057F00006460F461446D518AC4201D1002007E0FA
:1058000014F8011B3A463046FFF7DAFF431CF3D188
:10581000F8BD00002DE9F04F0D469DB014469846A6
:10582000064618B183690BB900F014FB894B9D4201
:105830001BD175686B6ED90705D4AB899A0502D464
:10584000A86D00F0A5FBAB891B0701D52B69EBB94F
:105850002946304600F06EF9C0B16B6EDC070ED5FC
:105860004FF0FF301DB0BDE8F08F7B4B9D4201D162
:10587000B568DFE7794B9D4208BFF568DAE7AB8989
:105880009805EDD4A86D00F084FBE9E700230993A7
:1058900020238DF82930CDF80C803023DFF8C0812B
:1058A0008DF82A304FF0010923469A4613F8012B50
:1058B0000AB1252AF9D1BAEB040B0BD05B4622467C
:1058C00029463046FFF793FF013000F0AA80099A7D
:1058D0005A4409929AF80030002B00F0A28000236D
:1058E0004FF0FF32CDE905230AF1010A0493079333
:1058F0008DF853301A935446052214F8011B58486A
:10590000FAF78EFC049AD8B9D10644BF20238DF84B
:105910005330130744BF2B238DF853309AF80030CF
:105920002A2B15D0079A544600204FF00A0C214626
:1059300011F8013B303B092B4ED9B0B1079214E06E
:10594000A0EB080309FA03F313430493A246D2E73A
:10595000039B191D1B680391002BBBBF5B4242F0E8
:10596000020207930793B8BF049223782E2B0CD121
:1059700063782A2B35D1039B1A1D1B680392002BD9
:10598000B8BF4FF0FF3302340593DFF8E4A021786D
:1059900003225046FAF744FC40B14023A0EB0A0032
:1059A00003FA00F0049B03430134049314F8011B31
:1059B0002C488DF828100622FAF732FC00283FD038
:1059C000294B1BBB039B073323F0070308330393C7
:1059D000099B3B44099367E70CFB02320C4601200C
:1059E000A5E700230134059319464FF00A0C204621
:1059F00010F8012B303A092A03D9002BC5D00591A4
:105A0000C3E70CFB012104460123F0E703AB00933D
:105A10002A46164B04A93046FDF71EFE0746781CA1
:105A2000D6D16B6ED90705D4AB899A0502D4A86D7F
:105A300000F0AFFAAB895B063FF512AF099811E7AA
:105A400003AB00932A46094B04A93046FEF7A8F899
:105A5000E4E700BF8C670008AC6700086C670008CB
:105A6000146600081E66000859360008EF57000843
:105A70001A660008F8B50E461446054618B1836943
:105A80000BB900F0E7F9214B9C422BD16C68A3695C
:105A9000A360A3891A072FD523696BB323692068F4
:105AA000C01A6369F6B28342374604DC21462846B1
:105AB00000F03CF930BBA368013BA36023685A1C8B
:105AC00022601E7063690130834204D0A389DB0722
:105AD00006D50A2E04D12146284600F027F988B9B8
